00000000010000000001Lønkonto            000125050DKK
00000000010000000002Opsparing           050000000DKK
00000000020000000003Budgetkonto         000230075EUR
00000000030000000004Rejsekonto          000001500USD
00000000040000000005Huslån              050000000SEK
00000000050000000006Kreditkonto         000075000GBP
